:020000040000fa
:080000000002040000000000f2
:020000040000fa
:100008009a0200009a0200009a0200009a02000078
:100018009a0200009a0200009a0200009a02000068
:100028009a0200009a0200009a0200009a02000058
:10003800c8e300009a0200009a0200008e1e000029
:10004800aeef00009a0200009a0200009a02000037
:100058009a0200009a02000092d300009a0200005f
:100068009a0200009a0200009a0200009a02000018
:100078009a0200009a0200009a0200009a02000008
:100088009ad300009a0200009a0200009a02000027
:10009800f24d00009a020000dc4c00009a020000b9
:1000a8009a0200009a0200009a020000dad20000c8
:1000b8009a0200009a0200009a0200009a020000c8
:1000c8009a0200009a0200009a0200009a020000b8
:1000d8009a0200009a020000e8bd00009a0200009f
:1000e8009a0200009a0200009a0200009a02000098
:1000f8009a0200009a0200009a0200009a02000088
:1001080036d300009a0200009a0200009a0200000a
:100118009a020000d2bd00009a0200009a02000074
:100128009a0200009a0200009a0200009a02000057
:10013800a2d30000aad300009a0200009a0200008d
:100148009a0200009a0200009a0200009a02000037
:100158009a0200009a0200009a0200009a02000027
:100168009a0200009a0200009a0200009a02000017
:100178009a0200009a0200009a0200009a02000007
:100188009a0200009a0200009a0200009a020000f7
:100198009a0200009a0200009a0200009a020000e7
:1001a8009a0200009a0200009a0200009a020000d7
:1001b8009a0200009a0200009a0200009a020000c7
:1001c8009a0200009a0200009a0200009a020000b7
:1001d8009a0200009a0200009a0200009a020000a7
:1001e8009a0200009a0200009a0200009a02000097
:0801f8009a0200009a020000c7
:020000040000fa
:100208009a0200009a0200009a0200009a02000076
:100218009a0200009a0200009a0200009a02000066
:100228009a0200009a0200009a0200009a02000056
:10023800c8e300009a0200009a0200008e1e000027
:10024800aeef00009a0200009a0200009a02000035
:100258009a0200009a02000092d300009a0200005d
:100268009a0200009a0200009a0200009a02000016
:100278009a0200009a0200009a0200009a02000006
:100288009ad300009a0200009a0200009a02000025
:10029800f24d00009a020000dc4c00009a020000b7
:1002a8009a0200009a0200009a020000dad20000c6
:1002b8009a0200009a0200009a0200009a020000c6
:1002c8009a0200009a0200009a0200009a020000b6
:1002d8009a0200009a020000e8bd00009a0200009d
:1002e8009a0200009a0200009a0200009a02000096
:1002f8009a0200009a0200009a0200009a02000086
:1003080036d300009a0200009a0200009a02000008
:100318009a020000d2bd00009a0200009a02000072
:100328009a0200009a0200009a0200009a02000055
:10033800a2d30000aad300009a0200009a0200008b
:100348009a0200009a0200009a0200009a02000035
:100358009a0200009a0200009a0200009a02000025
:100368009a0200009a0200009a0200009a02000015
:100378009a0200009a0200009a0200009a02000005
:100388009a0200009a0200009a0200009a020000f5
:100398009a0200009a0200009a0200009a020000e5
:1003a8009a0200009a0200009a0200009a020000d5
:1003b8009a0200009a0200009a0200009a020000c5
:1003c8009a0200009a0200009a0200009a020000b5
:1003d8009a0200009a0200009a0200009a020000a5
:1003e8009a0200009a0200009a0200009a02000095
:0803f8009a0200009a020000c5
:020000040000fa
:100400008f5623000e1f24000e01880000000000fc
:10041000000020000000e000020032000001200087
:10042000200288000c00070000af2e000100200011
:1004300011000700000020000000e0000200320070
:1004400000000200000000007c1e0200000000000e
:100450000040da000000fe004440a90040482100ae
:100460000000e0000300320000002000a00188002e
:100470004440a80000000600910188008000780038
:100480000000eb0015003700e280400032a0b4000d
:100490009101ba00e280400032a0b4009102ba009b
:1004a000e280400032a0b4000002eb00472bde00e7
:1004b000f507b200602ce10004003a000059eb009f
:1004c0008301e900fdff3e00040037006128e100e0
:1004d000010032000082eb00040007001101ba00a5
:1004e0000200e000e8ff3a00000006003159ba00bf
:1004f0008301e9000c0032002159ba008301e900b0
:10050000080032000400e00003003a00e2804000ee
:1005100032a0b400f5ff370011d9ba008301e90019
:10052000faff3a008100e800e180400032a0b40008
:10053000000006000040da000000fe000a00fa0099
:10054000e20f500022003e0064178200e10f5200cb
:1005500006003200872320004623200024232000a9
:1005600005232000e08f530004003a00872220007a
:10057000462220002422200005222000000028001e
:100580001500600003003a00800b78000700280087
:10059000958a7300054020009482620001003a00b1
:1005a00014a0a000820278000600370094037800af
:1005b0000710b200fdff3200b103fb00070b78000b
:1005c0008502e900e08f5200f8ff3a00080037008a
:1005d00034002000c0bf9f00e2bf9f00b4bf9f0057
:1005e000d1bf9f006a805700a20907006fb997002a
:1005f000020078000080fa000000060087c0a90011
:100600006702600087e0a9004822dd00f58f2f0017
:1006100096058000868262008502720000027800e2
:10062000950588000407b200f5ff28004822dd0088
:100630009605800086826200850272006802600072
:10064000950588004322de00f5ff2b006102620061
:10065000b6048000868262004e22dd000008b200ef
:10066000850272004700de00b5048800610060006a
:10067000f4ff27004f00dd00b50480000502620092
:1006800004027000b404880000000600c211880053
:1006900080118800911188000000060084118000fc
:1006a00066026200e60f52000c003a0003003700b9
:1006b0003322ab00feff3a00a5118800b00278009b
:1006c000e08f5200faff3a00000006003322ab0030
:1006d000feff3a008502fb00a5118800b0427800b9
:1006e000e0cf5200f9ff3a000000060084118000bc
:1006f00066026200e60f520002003a00b01180006c
:1007000000000600b0118000f00fb20000000600eb
:100710008411800066026200e60f52000100320080
:10072000f00fb200a01188000000060003f0a20044
:10073000889fbe008a9fbe008c1f7800fa000700c9
:10074000010133006450e1004f0032006420e100f9
:100750005200320003826c0007003b000905d00004
:100760000306d000820f54000c065d000200390021
:100770000200320089017800030678008582550066
:1007800004003d000003fd008103fd008502ea0036
:100790008b854200840f720002003b006000100055
:1007a000e08018006011b8000005eb007a28e10035
:1007b0000a00390006007800c75ddd00f707b200c7
:1007c000878075002d003700828171000a01780052
:1007d000610560008180d1000080d3008502e900be
:1007e000f9ff3b00060440008784480002003b00fc
:1007f00060041400e0841c000988a3000700320094
:100800008a81710082817100610164008904d100d4
:100810000884d3008b05e800170037000978a3008f
:1008200013003a000b00e000130034008b05e900d0
:100830000804440089844c000a4474000978a30029
:100840000d003a000b00e000070034008b05e900c2
:100850000804440089844c0001003a000b00200089
:100860000978a300f7ff32000001eb000200370017
:10087000828171000a017800700007000cf0a70067
:1008800001f0a000b90037006420e10002003a0046
:10089000838f6c00b90033000801be000200be0067
:1008a000b2003700889fbe008a9fbe008c1f780070
:1008b0009d000700a400330003866c006450e10033
:1008c0002e0032006420e100330032006150e1006c
:1008d0002f0032006120e100310032008585550093
:1008e000eb07b000090020000804200005003700d5
:1008f0000804440089844c000a00310006034300c8
:1009000087834b000001530081815b00f8ff3300b7
:100910000203be000800a0000804440089844c00c3
:10092000f6ff3900c639dd00830173000100320093
:10093000130020008904d1000884d3000998a30083
:10094000050032000800a7000300a0008904d100c0
:100950000884d3008b05e8008904d1000884d30003
:100960000001eb000281d2003400070001f0a10079
:100970000cf0a70001f0a0007c0037006420e1002b
:100980007e0032000801be000200be00f7ff370003
:100990006120e100790032006000b800f3ff370009
:1009a0000000200001f82700f0ff370014002000ad
:1009b000a9003700f4ff2f00a70037000001be0098
:1009c000440007000470a70003f0a10003f8a3008f
:1009d00013003a006509b10010003200090035002b
:1009e0006928e10002003500010028000000050030
:1009f00000004000818048008502e900fcff3a00c9
:100a000000000600f88f4200050035008100d1008b
:100a10000080d3008502e800fcff3a0000000600d9
:100a20008000eb00000005004f89de0082017800a5
:100a3000a40037006011b800b20037008100200028
:100a4000618055000b003d000b00200061fe2f006f
:100a50000100e1001d003400828171006101640029
:100a60008904d1000884d3000000e800faff3a00ae
:100a7000710020006100640003007000020060004b
:100a80000900320061044400e0844c000988a5009c
:100a9000050032008b05e8006808e10002003a001a
:100aa0008904d1000884d300f20f20000258e1002d
:100ab00005003d00c75ddd00f907b20089807500c3
:100ac00008007800000006000bf827008b00780073
:100ad00000000500c70ade00f107b200f50fb20002
:100ae00008003200e1cf4200020032000170a00095
:100af00024000500810f7000010032000408050089
:100b000044000500810f700002003a001400050047
:100b10008502e9000000400081c04800fcff3b0066
:100b20000170a000240005000004be00e9ff0700da
:100b30000003be000405be000200be00e5ff070082
:100b4000844f7500000006000200be006450e10002
:100b5000050036006420e100020036000968a300a9
:100b600001003a000800be000160a0004f067800b6
:100b70004f05be004f04be0000000600f0ff2f002e
:100b8000f1ff2700f9ff3700889fbe008a9fbe0053
:100b90008c1f7800e4ff0700ebff330003866c0036
:100ba0006450e100240032006420e100270032009c
:100bb0006150e100220032006120e100210032009a
:100bc0008b854200eb07b1000134b800003ab80051
:100bd0000804420089844a00013ab8000030b80095
:100be0008880400009014a000400330000004000f2
:100bf00081804800020149008b05e900c909dd0038
:100c0000830170000100320013002000c814de00d0
:100c10004814dd004709de001200b200c808de00fb
:100c20000884700085ff070001f0a1000cf0a70008
:100c300001f0a000cdff37006120e100cfff3200be
:100c40000801be000200be00f7ff37006150e1005e
:100c5000fcff3a00c9ff3700889fbe008a9fbe0094
:100c6000841f7800b0ff07004f00780011003300a8
:100c7000f0ff2f00838f6c0006003b000405650029
:100c80000a00a7000800370009f0a60010002000a5
:100c900008003700820f5400838f5c000300390086
:100ca0001000200001003e000000200009f0a70015
:100cb0000000ea004f05be004f04be000000e00047
:100cc00000000600881f7800030478000300e0009d
:100cd00007003d0060001000e0801800600119006e
:100ce000e081190002003b0001f02d0003003700f5
:100cf0000400070008f0a70001f0a0004f047800ee
:100d000000000600889fbe008a9fbe00008270001f
:100d10000402710004827100260032000004be004b
:100d20000200be006011b8006b092000950220008f
:100d30000182cf000a0039000541b1000082cf00d6
:100d4000070039000541b1000982cf0004003900d5
:100d50000541b1000882cf00010039000541b10012
:100d600005425200120032000a003b0082817100ed
:100d7000610164008100d1000080d3008984d30028
:100d80000884d3008b05e8000442e800f7ff3a002e
:100d9000070037000804440089844c000000480024
:100da000818048008b05e9000442e900f9ff3a0020
:100db00022ff07004f05be004f04be0000000600e2
:100dc00006c2b3000002780004007800b042780048
:100dd00086cf5200fbff3200e9cf5200f9ff32000c
:100de000d6c2b30086cf520003003a00000278005a
:100df00016c0b300050037000043eb00b7c2b300d4
:100e000087cf520001003a00000278000000eb009a
:100e1000020037006a00b90000804200b402fb0003
:100e20000503b100e98f5200faff3600e04f53008e
:100e3000010032000000ea00000006000002780015
:100e400002003700315a78000201e900e00f51003a
:100e5000fcff3a0000000600889fbe000004be00b0
:100e6000050037000000fb0089007800fb06070042
:100e7000e10f40000400320038407800e04f50009d
:100e8000f8ff3a000000eb004f04be00000006002f
:100e9000212d2400881f7800efff0700212d24005a
:100ea00000047800a0002000ec060700080078008d
:100eb0004f04780000000600000278008042eb003a
:100ec000b4cf1200fdff3a000080ea0000004200ab
:100ed000000006000b00370030427800e04f52005f
:100ee000030032000201e900b14f52000500320058
:100ef0000480fb00954278008582fb0005005000cd
:100f00000000060081027800e00f5100f2ff3a0075
:100f10000200780000000600212d2400cf063700d3
:100f2000202d24000000fa0068815700cfb89700f8
:100f3000d50007000080fa00000006000c00fa004f
:100f4000889fbe00f4ff270000047800d4bf9f00f4
:100f50008004eb0088bf9f0099bf9f00a8bf9f003f
:100f6000240c200078815700b4bf9f00cfb09700b9
:100f700070805700c40007000fba9700094a780034
:100f80000fba9700080052004f04be000080fa001c
:100f900000000600d4c6b3000800fa00889fbe0017
:100fa0000084fb008a9fbe00844f5000340036004e
:100fb000a93123004b062000110009000b84d80042
:100fc000720040004300dd0000804400810578008d
:100fd0006022b8000600200007fe2300aa002000bf
:100fe0005001be004000be00e70807000002be003e
:100ff000110009008a85d80080057800e985450040
:10100000c35ddd008b8544000203be0084bf9f00ea
:1010100095bf9f00a6bf9f00b7bf9f003b02be00c9
:101020002b03be000fb897009fb897002fb9970009
:10103000bfb99700d40807000002be0011000900e4
:101040000a84d800010478004344dd008884440009
:101050000203be0084bf9f0095bf9f00a6bf9f00f4
:10106000b7bf9f003902be002903be000fb897002a
:101070009fb897002fb99700bfb997001d003700a0
:10108000ea4f500013003600aa002000a9312300c7
:10109000110009000a84d8000105780069044000a5
:1010a0004355dd004344dd00088444008a84440045
:1010b0006022b8000600200007fe23003800be00b2
:1010c0002801be00b00807003902be002903be0097
:1010d00008003700a43123004344dd000804420027
:1010e0006022b8000600200007fe23003800be0082
:1010f0002801be00a40807004f05be004f04be0033
:101100000080fa0000000600d4c6b3000800fa0010
:10111000889fbe008a9fbe00e04f500022003d0025
:101120000040ea000004fb00844f50000a00340035
:1011300044062000a9002000110009000404d80082
:10114000aa312300110009008900d800e9004000fd
:10115000c308dd0020003700ea4f50000f003400c4
:10116000a4002000110009000404d800a4312300c9
:10117000690040004300dd0000004200430cdd0038
:10118000080242005001be004000be005403be00f1
:101190004402be007c080700370037004344dd00ee
:1011a000a4312300310037000004fb00844f5000bd
:1011b0002300340044062000a9002000110009008b
:1011c0000404d8008a312400110009008900d800e5
:1011d000e9004000c308dd00810045008b092000c4
:1011e0008a8545003102be002103be003b00be00df
:1011f0002b01be00640807000002be0011000900b8
:101200000904d800010478004344dd0008054500c6
:101210000203be0084bf9f0095bf9f00a6bf9f0032
:10122000b7bf9f003a02be002a03be000fb8970066
:101230009fb897002fb99700bfb99700d5ff370027
:10124000ea4f500007003400a400200011000900fc
:101250000404d80084312400690040004300dd000c
:10126000c5ff37004344dd008431240008044200f8
:101270003800be002801be004f05be004f04be006e
:101280000080fa0000000600ef05b000889fbe0055
:101290008a9fbe008c9fbe00000678008e1f7800db
:1012a0000007eb00e19f9f0082af9f006000b80045
:1012b0006011b80080a79f0091a79f00a2a79f0080
:1012c000b3a79f00d9053700ef98970054c2b30029
:1012d0008100e800e19f9f00844f500006003a0023
:1012e000810278008006eb0007c3b30000c2b300a0
:1012f000b1c2b3000e0037003c0290000404b200fb
:10130000040032001c027800004a7800040ee80055
:10131000050037000000fb008c007800cf050700b7
:10132000e10f4000c10532000e07e800bf0537009d
:1013300005037800d2c2b30035427800824f5200d4
:101340000900320005003c00804f520008003200c6
:10135000814f52000c003a0007003700874f5200bf
:1013600009003a00060037000d30a000f0ff3700fa
:101370000d00a000eeff37000d10a000ecff3700bd
:101380000d20a000eaff3700e28266000100320073
:101390000d00a100e8826600010032000d20a100ce
:1013a0008402fb000503b100e98f52000d003e00ee
:1013b000860278008003eb003502fb006a3bb9002f
:1013c0000403b100860342001502fb000503780008
:1013d0000403b100e90f5200f7ff360097b79f00f2
:1013e0000a0037008002eb0095b79f00a5c2b3004a
:1013f000854f520005003a008fab97000603e800c6
:101400004700780087af9f0090b79f00e4c2b30009
:10141000964f120017003a000de0a00064425200ff
:10142000d64f120003003200060278008003eb0062
:10143000090037000fa997000603e800c2017800f1
:1014400082af9f00d3af9f00c7c6b3000d00370027
:101450006a3bb9008683420004037800b402fb00b3
:101460000503b100e98f5200f9ff3600d7af9f00a6
:10147000f5ff37000002eb000dc0a000d4af9f00c5
:10148000f1ff3700860278003542780005037800c6
:10149000874f52002d003200e59f9f00c5c6b30064
:1014a000854f520014003c00e8c25200854f5200a4
:1014b0002400320009003c00ecc25200854f52006b
:1014c0002e003200ebc24200854f52009a003200db
:1014d000e04f52005a053200b800370065c6b3002d
:1014e000854f52001f003200e3c24200854f520078
:1014f000b2003a001300370035c7b300854f5200e1
:101500002200320007003c00e4c25200854f520026
:10151000170032008542e800854f5200a7003a00cc
:101520001600370055c7b300854f5200a80032009f
:10153000e3c24200854f5200a0003a00e4579f00ea
:1015400010003700e4579f00a3003700f0826600c8
:101550000401200001003200040028008d06720002
:10156000c8ff3700e4579f000da0a0009a00370085
:10157000e4579f000d60a00097003700e4579f00dc
:101580000d50a0000d70a000930037008faa9700a7
:10159000e4579f004502780085af9f00040478005f
:1015a000e00f520001003a00a83e240088027800b3
:1015b0000002eb00010037000402e80065437a00f6
:1015c000e04f5300fcff3a00840478005fab9700c3
:1015d000e00f530003003200890f53000100310077
:1015e000860478000002eb009fb39700898f5300b8
:1015f0000100360009825300e8866600ddaf9f00d7
:101600000d007800e00f50002c003a0084067800ae
:1016100004c2b30010003700bc0290000504b20001
:10162000040032009c027800844a7800050ee8002d
:101630000700370084bf9f008c0078000002200064
:10164000060507000fba9700e10f400001003200c5
:101650000e07e8008d06e900e08f5600eeff3a0025
:101660000082eb00150037003c0290000404b20039
:1016700009003200080278001c037800b4427800a8
:10168000054b780004047800060ee800e0cf520015
:1016900008003a000a003700080278008c00780041
:1016a0003400fb0004047800ec040700e10f400064
:1016b000030032000e07e8000100370084067800be
:1016c000090278008404e900e00f5200e6ff3a00c6
:1016d0000d027800dfa89700e08f5000d30432009d
:1016e0008406780004c2b30010003700bc029000ea
:1016f0000504b200040032009c027800844a78009d
:10170000050ee8000700370084bf9f008c007800ba
:1017100000022000d10407000fba9700e10f40003b
:10172000010032000e07e8008d06e900e08f560048
:10173000eeff3a00bd0437000fa99700f082660063
:101740004202780082af9f0004007800cf80de0064
:10175000010178008201780090af9f00a1af9f0047
:10176000b2af9f00c3af9f004800de00480add0013
:1017700000007200e0579f00e08f52000900320025
:10178000e04f500007003200e14f400005003200fa
:10179000afd29700f0579f00855f9f00290020007f
:1017a000030037002fd3970019002000f6579f0041
:1017b00078f92f000f04440084ff3700e4579f009e
:1017c00068f92f000f044400190020007fff370044
:1017d000e4579f000d0cb3000470200004826600e3
:1017e000650232000400210004826600020032001b
:1017f00067002000d7af9f007082660009003200aa
:101800000faa97004401be004400be0084af9f00b1
:1018100090af9f00a1af9f00b2af9f00c3af9f00ea
:101820000a0037008faa97004500be0085af9f00d1
:101830003d0607000002be000203be0094af9f00f9
:10184000a5af9f00b6af9f00c7af9f006022b80052
:101850006033b8001fa89700afa897003fa9970072
:10186000cfa9970082050700e00f50000a003d0055
:101870001fa89700afa897003fa99700cfa997008e
:1018800003f0a20090af9f00a1af9f00b2af9f00f6
:10189000c3af9f003d00b3000002eb001fa89700fc
:1018a000afa897003fa99700cfa99700d48f9f00ba
:1018b0006022b8006033b800d1050700e00f500087
:1018c00034003200a4f92f000f0242001fa8970035
:1018d000afa897003fa99700cfa997008d060700f2
:1018e0005f889700a40020000000e9006300b900b1
:1018f000110009000400d800d08f9f00e00f5000b5
:1019000002003d000000e900d08f9f005f8c97002f
:101910000840ea00fcfd07001faa9700afaa970045
:101920003fab9700cfab9700970607000002be00c1
:101930000203be0084a79f0095a79f00a6a79f0053
:10194000b7a79f006022b8000600200007ff230011
:1019500047050700e00f500002003d000804e900c1
:101960000b0037006022b800060020004702240068
:101970000fa097009fa097002fa19700bfa19700ed
:1019800040050700e00f5000020035000804e800a1
:10199000d88f9f00dfaa9700f88f52000f003c00fd
:1019a000054078007bfd07000002be000203be0078
:1019b0001fa89700afa897003fa99700cfa997004d
:1019c000ae0407000002be000203be0094af9f00f9
:1019d000a5af9f00b6af9f00c7af9f005f8c970079
:1019e000e90f540015003c006022b8006033b800d5
:1019f0001fa89700afa897003fa99700cfa997000d
:101a00007f050700e00f5000320032001fa897004a
:101a1000afa897003fa99700cfa99700e10507005d
:101a2000e00f5000e08f5800e00f5900e08f5900a0
:101a300028003a00e10f5400260034000400200082
:101a400005002e00b6e02200170124000fa0970029
:101a50009fa097002fa19700bfa197000405070042
:101a6000e00f500002003d007304540001003700f5
:101a700072045400d88f9f002f589700a2fd0700d2
:101a80000002be000203be001fa89700afa8970087
:101a90003fa99700cfa9970084a79f0095a79f0013
:101aa000a6a79f00b7a79f00fb040700bd0507007e
:101ab0000205be000004be006000b8006011b8005e
:101ac00090af9f00a1af9f00b2af9f00c3af9f0038
:101ad000170037001fa89700afa897003fa99700ed
:101ae000cfa99700af0507000205be000004be00a5
:101af000dd0507000002be000203be001fa897001c
:101b0000afa897003fa99700cfa9970093060700b9
:101b10000002be000203be0094af9f00a5af9f006d
:101b2000b6af9f00c7af9f000002eb00d48f9f00ad
:101b30008147230010c0b300080037003102be0007
:101b40003103be000440e10005c8e10006d0e10019
:101b500007d8e100030039000040e800f44f5000ce
:101b6000f6ff3a009fb297005f8a97005fab97003d
:101b700004825200e0579f00860252000002fb00e0
:101b80000482520094b79f00e00f5300020032001d
:101b90000402e90094b79f006382660003003200ec
:101ba0009fb397008703e90097b79f0064826600a0
:101bb0004500320062826600e1826600e00f52005a
:101bc000110032003c0290000404b2000800320010
:101bd0001c037800b4c2b300e08f52000100320051
:101be00004c2e800044b7800060ee8001500370038
:101bf000b0022000e08f5200010032000080e800b7
:101c00008c0078000c003700e08f5200200032007a
:101c10003c0290000404b200050032009c027800ef
:101c200004c2b300844a7800050ee80005003700be
:101c30008c0078000002200088030700e10f4000bc
:101c4000130032000e07e800110037003c0290003c
:101c50000404b200040032001c027800054a780037
:101c6000040ee80007003700f5b79f008c007800ed
:101c70000003200079030700ffb29700e10f400046
:101c8000010032000e07e8008904e9000600370071
:101c9000c8a79f00d9a79f00eaa79f00fba79f00a6
:101ca0009fb4970005c3b300e08f5400e7ff3c00ea
:101cb00099b79f004fa49700dfa497006fa59700e6
:101cc000ffa597006e003700688266001f003a008b
:101cd000110037003c0290000404b20004003200fe
:101ce0001c027800054a7800040ee800070037005f
:101cf000f5b79f008c007800000220005703070012
:101d0000ffb29700e10f4000010032000e07e8002b
:101d10008904e90006003700c8a79f00d9a79f00e3
:101d2000eaa79f00fba79f009fb4970005c2b300de
:101d3000e08f5400e7ff3c0099b79f004fa4970045
:101d4000dfa497006fa59700ffa597006282660049
:101d5000e1826600e00f5200110032003c02900068
:101d60000404b200080032001c037800b4c2b300bf
:101d7000e08f52000100320004c2e800044b7800fa
:101d8000060ee8003d003700b0022000e08f520050
:101d9000010032000080e8008c0078003400370039
:101da000e08f5200360032003c0290000404b20082
:101db000050032009c02780004c2b300844a780017
:101dc000050ee8002d0037008c007800000220008e
:101dd000270037003c0290008502fb000404b2009b
:101de0001300320002472300c32add0085024100b0
:101df0009c0078005503be004502be00c1a79f00ad
:101e00000800be000a01be0097060700a4002000db
:101e1000050020006033b8009a0607004fa2970023
:101e200005c3b300054a4000040ee8001300370064
:101e300006472300c32add00850243000800be00d8
:101e40000a01be005503be004502be00860607001b
:101e5000a4002000050020006033b80089060700b8
:101e60008c00780004032000000242000400780087
:101e7000fa020700e10f4000010032000e07e800ff
:101e80006f5297008442e900e5579f00e04f5200ef
:101e9000d0ff3a00110037003c0290000404b20069
:101ea000040032001c027800084a7800040ee800a2
:101eb000050037008c00780000032000e7020700cf
:101ec000e10f4000010032000e07e8005f8a970032
:101ed0000402e900d48f9f000100370008c3b3005b
:101ee0005f8a9700e00f5200ebff3c00dfab9700ea
:101ef000f28f53000300340024c1b300e4579f0065
:101f0000020037002fd89700e0579f006f529700cc
:101f1000dfa897000403fb0006835000c6a79f00bc
:101f2000e04f52000e0032003c0290000404b20068
:101f3000050032001c027800e5c2b300054a7800b3
:101f4000040ee800050037008c007800e002200055
:101f5000c2020700e10f4000010032000e07e80056
:101f60006f50970068fc07000002be000203be002d
:101f70001fa89700afa897003fa99700cfa9970087
:101f80000105070087040700350037003c02900078
:101f90008502fb000404b200130032000347230053
:101fa000c32add00858241001c0178005503be0074
:101fb0004502be00d2af9f000800be000a01be006d
:101fc00029060700a4002000050020006033b800a7
:101fd0002c0607005faa970005c3b300054a40001e
:101fe000040ee8001300370006472300c32add0073
:101ff000850243000800be000a01be005503be0072
:102000004502be0018060700a400200005002000bd
:102010006033b8001b0607008c0078000403200022
:1020200000024200040078008c020700e10f40002b
:10203000010032000e07e800ef539700004723002d
:102040000702fb004322dd00040240000800be003e
:102050000a01be005403be004402be000906070088
:102060006f5297000205be000004be008442e900e2
:10207000e5579f00e04f5200c4ff3a0011003700bf
:10208000bc0290000504b200040032009c027800fb
:10209000844a7800050ee8000700370084bf9f00df
:1020a0008c007800000320006c0207000fba970034
:1020b000e10f4000010032000e07e8008904e9004a
:1020c00006003700cfa49700d0af9f00e1af9f007c
:1020d000f2af9f0083b79f0004c3b300e08f5400aa
:1020e000e7ff3a005fac9700efac97007fad970039
:1020f0008fb59700e88666004c0232009fb09700cb
:10210000e08f5000490234000802be000a03be00fe
:102110000dc2b300810478003c0090000004b200be
:10212000040032001c0078000d487800000ee80022
:102130000d00370084bf9f00f5b79f00d6b79f0002
:10214000e7b79f008c0078000002200043020700e0
:102150000fba9700ffb297005fb39700efb39700f5
:10216000e10f4000010032000e07e8008904e90099
:10217000e9ff3a002d0237008d027800050cb2000d
:102180002a003a00e08f560005003d000fa9970095
:102190004205be004204be0082af9f001600370019
:1021a000708266000e0032000fab97004602be0040
:1021b000c4979f00d5979f0086af9f00160290009e
:1021c0004fa2de00e4979f00f4979f004f94970082
:1021d000df9497006f959700ff95970006003700f2
:1021e0000fa897004004780080af9f00cfc4de00a6
:1021f000090578008a057800e00f5400e08f5c0044
:10220000e00f5d00e08f5d0023003d006022b8001c
:102210006033b8003d00b3000804520089845a00be
:102220000a055b008b855b001b003700e08f5600c2
:1022300005003d008fa897004105be004104be0087
:1022400081af9f0014003700f08266000c0032005e
:102250008faa97004501be00a4979f0082979f0018
:1022600093979f00b4979f0085af9f000f949700ae
:102270009f9497002f959700bf9597000600370011
:102280008fab97004704780087af9f0009002000bc
:102290000a0020000b0020005fa89700e00f50000c
:1022a00009003a0011002000d1af9f00e00f540058
:1022b000e08f5c00e00f5d00e08f5d000200320007
:1022c0000001eb00d2af9f008d01780004042000d4
:1022d000030cb20093af9f00848f51002c0032009a
:1022e00003003c00e08f5100080032003c00370042
:1022f000040820009faa9700848f5200100032002b
:10230000040c2000848f520035003a0081472300de
:1023100010c0b3003102be003103be000440e10032
:1023200005c8e10006d0e10007d8e1002b00390024
:102330000040e800f44f5000f6ff3a002700370055
:1023400010c0b30004012000050020006033b80075
:102350000440e10005c8e10006d0e10007d8e10033
:102360001e003900410020000402d0008582d20006
:102370000683d2008783d2008100e900faff3a0089
:102380000040e800f04f5000f1ff3a001300370022
:1023900010c0b30084002000050020006033b800a6
:1023a0000440e10005c8e10006d0e10007d8e100e3
:1023b0000a003900320020000402d0008582d200d9
:1023c0000683d2008783d2000201e900faff3a00b7
:1023d0000040e800f54f5000f1ff3a00e0579f0041
:1023e000ef519700dfaa97000302fb00850f520010
:1023f00002003d00e5579f00040037005fab9700e7
:10240000840f530001003d00d4af9f009fb397009d
:10241000e08f530004003200638266000200320045
:102420008703e90097b79f00040024000482660038
:10243000090032001fb09700dfa89700810f5000fd
:10244000030034000100500090b79f0002003700e5
:102450000001eb0092b79f00ef5197008002eb0064
:102460000302fb00c5a79f001fb39700840f530012
:102470000200340004025300c4a79f006482660077
:1024800045003200e282660061826600e08f520001
:1024900011003200bc0290000504b20008003200b6
:1024a0009c027800b6c2b300e00f52000100320077
:1024b00006c3e800864a7800050ee80015003700dc
:1024c000b0022000e00f5200010032000080e8005e
:1024d0008c0078000c003700e00f52000e00320034
:1024e0003c0290000404b200050032001c02780097
:1024f00005c2b300054a7800040ee8000500370065
:102500008c0078000002200054010700e10f400019
:10251000010032000e07e800cfa39700e08f5300c0
:102520006300320098b79f00a9b79f00bab79f0019
:10253000cbb79f0004c3b30087047800bc029000af
:102540000504b200040032009c027800844a78003e
:10255000050ee8000700370084bf9f008c0078005c
:10256000000320003d0107000fba9700e10f400073
:10257000010032000e07e8008904e900efff3a008d
:10258000c9a79f001fb49700afb497003fb597004d
:10259000cfb5970046003700cfa09700e08f5000de
:1025a0001e003200688266001c003a0098b79f0047
:1025b000a9b79f00bab79f00cbb79f00cfa49700e1
:1025c00004c2b300bc0290000504b2000400320053
:1025d0009c027800844a7800050ee8000700370066
:1025e00084bf9f008c007800000220001b010700c0
:1025f0000fba9700e10f4000010032000e07e8001b
:102600008904e900efff3a00c9a79f001fb49700b3
:10261000afb497003fb59700cfb59700e282660050
:1026200061826600e08f520011003200bc0290000f
:102630000504b200080032009c027800b6c2b30064
:10264000e00f52000100320006c3e800864a78001d
:10265000050ee80015003700b0022000e00f520020
:10266000010032000080e8008c0078000c00370088
:10267000e00f52000e0032003c0290000404b20051
:10268000050032001c02780005c2b300054a78003c
:10269000040ee800050037008c00780000022000de
:1026a000ee000700e10f4000010032000e07e800d5
:1026b000dfa89700054723000102e90098b79f00b3
:1026c000a9b79f00bab79f00cbb79f004221dd009a
:1026d0006323b900929f9f004322dd0086017800aa
:1026e00085024200839f9f00f59f9f0070826600d5
:1026f0008d027800f48f9f000502b200e58f9f00e5
:10270000a3003700dfa897001fa997008100e90008
:1027100003042000d1af9f00830f510073003200eb
:1027200003003c00e00f5100080032007e0037003b
:10273000040820009faa9700848f520056003200a0
:10274000040c2000848f520077003a00e08f56007e
:102750001f003d007f9b97001fb09700afb0970010
:102760003fb19700cfb197003604be002605be00ea
:102770000802be000a03be003b0407000802be00b8
:102780000a03be00e0579f000000fb00cf80de0080
:1027900001017800820178009c0407001fb29700b5
:1027a000afb297003fb39700cfb39700000252003b
:1027b00081825a0002035b0083835b0094b79f0011
:1027c000a5b79f00b6b79f00c7b79f002e00370080
:1027d000ff8a9700e08f5200220032007f9b970013
:1027e0001fb29700afb297003604be002605be00a8
:1027f0000400be0084bf9f00f5b79f000801be0023
:10280000580307000801be00e0579f000000fb00ce
:10281000cf80de00630307000fba9700ffb2970076
:102820000001520081815a000002eb00a29f9f002c
:10283000b39f9f00d49f9f008001eb00c39f9f0028
:102840002f989700bf9897004f999700df999700ae
:1028500090b79f00a1b79f00b2b79f00c3b79f007a
:1028600009003700ff9897001fb197001102780008
:10287000110009000481d800a40020001100090003
:102880000480d800e1579f00ef5197000343b00048
:10289000e3579f0024003700943d2400ef8a9700ff
:1028a000e08f520001003200843c24001fb09700ea
:1028b000afb097003fb19700cfb197001f9b970033
:1028c0000603e900050033008301d1000281d30033
:1028d0008180d3000080d300f9ff37006f006000d3
:1028e00064407800e0579f000f0037001fb2970048
:1028f000afb297003fb39700cfb397000f98970000
:102900000000e900050033008703d1000683d300ef
:102910008582d3000482d300f9ff3700674262004a
:102920000443b000e4579f003c0290000404b2004e
:10293000070032009c0278006f529700844a7800aa
:10294000050ee800e04f520007003a00070037008c
:10295000ef5097000100fb008c0078003f0007005b
:10296000e10f4000010032000e07e8001f999700b8
:102970008f9997007f9a970064015100e38151007d
:1029800068025200929f9f00839f9f00f49f9f00c8
:10299000dfaa9700e08f52005aff3a001fb4970059
:1029a000afb497003fb59700cfb59700e8866600b3
:1029b0001e0032004fa39700e00f53001b003400ad
:1029c0000802be000a03be00cfa497000dc2b300e8
:1029d0003c0090000004b200040032001c007800ab
:1029e0000d487800000ee8000d00370084bf9f00fe
:1029f000f5b79f00d6b79f00e7b79f008c0078001f
:102a000000022000150007000fba9700ffb29700e0
:102a10005fb39700efb39700e10f40000100320071
:102a20000e07e8008904e900e9ff3a00ef9b9700f0
:102a300017407800e0579f00e04f500022fa3a001c
:102a40000e0078004f0778004f06be004f05be000d
:102a50004f04be00ef05b10000000600889fbe00d5
:102a6000010478008084eb0038029000e2026200ea
:102a70003b00320004037800980290000620b20068
:102a800002003a00e08f520035003a000490a000a6
:102a90008004780034049800f90fb200e08f5200ef
:102aa00002003a00a8029000050c7800ea8f54005a
:102ab00005003a000408b20003003a0088007800dc
:102ac000d0002000e5ff070018029000d802900017
:102ad000850f52000b0032000402e80015c0b3005d
:102ae0001404980018027800094a7800040ce800e1
:102af000c43f2400054a7800ea8f540018003a00c9
:102b000005003700094078008800780017000700aa
:102b10008004780012003700380290000410b200e0
:102b20000f00320018019000a800900048009000ab
:102b300082f6070018029000840f50000400320053
:102b4000380290000403b300340498008084eb0042
:102b50000002eb001404980028029000040c780096
:102b6000090078004f04be00000006000200fa00d1
:102b7000889fbe0001047800a0ff9f0038029000eb
:102b8000840278000504b200020032000000fb005d
:102b900035003700e202620005003a000403b3008a
:102ba00015049800340498000080eb002e003700d4
:102bb000d8049000e08f540006003a001200200074
:102bc000e6805700480090005cf607001904980062
:102bd00023003700a8029000e08f520008003a005e
:102be000a52e24000430a00025049800050c7800d0
:102bf000340498002500200055049800150498001e
:102c000018019000a8009000480090004bf60700c3
:102c1000280290008082eb0015049800affa97001c
:102c2000054a7800040ce8002ffa9700ea4f52009a
:102c30000b003a00380290000410b2000800320085
:102c400018019000a8009000480090003bf6070093
:102c50000002eb00a802900014049800050c780014
:102c60002ffa97000400fb004f04be000080fa001a
:102c70000000060000c0da00000006002800fa008c
:102c8000889fbe008a9fbe008c9fbe00070678000a
:102c9000878669000c003b000304780087047800f5
:102ca00008f0a10009f0a100840f5000858f5800a2
:102cb000860f5900890f5c00030033000cf0a2005e
:102cc00001003a000cf0a100fe0007006400e100e2
:102cd0005f003200780147006408e10061003200c3
:102ce0006c014700748557003200be001201be001f
:102cf0003a04be001a05be001e039000be0a9000f2
:102d00008503530006003d000004fd008104fd0022
:102d10000205fd008305fd008703ea000503780036
:102d20000df8a3000400320060041400e0841c00cd
:102d300060051d00e0851d006022b8007d032000b5
:102d40000d38e1008006eb000b0039004433dd0054
:102d5000f300b200830173003900370084827200ef
:102d60000d027800e10664008b85d1000a85d3004e
:102d70008984d3000884d3008703e900f7ff3b0070
:102d800008004000898048000a0149008b81490001
:102d900004003b0060001000e08018006001190092
:102da000e08119000358a300090032008d827200ef
:102db00084827200610260008301d1000281d3002d
:102dc0008180d3000080d3000603e8001b00370099
:102dd0000348a30017003a000600e0001700340083
:102de0000603e9000d00a3000000480081804800b0
:102df00002014900838149000348a3000f003a0003
:102e00000600e000090034000603e900000040006d
:102e100081804800020149008381490001003a0095
:102e20000003eb000348a300f5ff32006022b80066
:102e3000020037008482720061826600750007001c
:102e400003f0a1000cf0a70003f0a000b1003700d0
:102e5000640147006408e10002003a000df8a30095
:102e6000a9003a003200be001201be00a9003700de
:102e70008f1fd1000e0307008f87e9000000e000dc
:102e800000000600809feb00090307008f87e90020
:102e90000000e000000006002800fa00889fbe0045
:102ea0008a9fbe008c9fbe0003866b0085000700d2
:102eb0006400e100440032006408e1004a0032008e
:102ec0006100e100460032006108e1004900320083
:102ed000ec0647006000b8003d02be003d03be00a6
:102ee000f48657006011b8003d04be003d05be00e9
:102ef0007d0320000b0037000000a0008d06e900d4
:102f0000130032000402420085824a0006034b008f
:102f100087834b0000004000818048000201490087
:102f2000838149000802520089825a000a035b002b
:102f30008b835b00f0ff3b000802420089824a005d
:102f40000a034b008b834b008d06e900edff3a002e
:102f50008482720086827200f707b2008782720054
:102f600001003200150020001e0490003e0b90006e
:102f700006035400e63fb0000368a30007003200d8
:102f80000000a7000500a0008301d1000281d3004a
:102f90008180d3000080d3000603e8008301d100c4
:102fa0000281d3008180d3000080d3000002eb00b7
:102fb0000482d2001700070003f0a1000cf0a70064
:102fc00003f0a00053003700640247006408e100ea
:102fd0004d0032003400be003401be00f6ff370061
:102fe0006108e100480032006011b8006000b800dc
:102ff000f1ff370003ff270002002000fbff37002e
:10300000801feb00aa0207008f87e9000000e000a4
:10301000000006001800200057002000080453009c
:103020000d003d000600200097fc2f000740e10046
:103030001e00340084827200610260008301d100ae
:103040000281d3008180d3000080d3000804e8000f
:10305000f8ff3a0047002000610460000504740096
:10306000040464000d00320061004000e08048006c
:1030700060014900e081490003b8a5000700320063
:103080000603e8006538e10004003a008301d1003e
:103090000281d3008180d3000080d300f87f20001c
:1030a0000830e10003003500080378006000b80034
:1030b0006011b8004433dd00f300b20083017300f7
:1030c00000000600680447000294be000094be00a1
:1030d000fc0447008694be008494be00090078007a
:1030e000bc02070008007800ba02070099007800c7
:1030f000814f70000b003b000800be0095020700e6
:103100004f00b10003003700f3ff2700f2ff2f004c
:103110006110b9004f06be004f05be004f04be004f
:103120000080fa00000006008103780069f60700bd
:103130000001be006000b8000478a30013003a004c
:103140006220e10015003e000d0039008301d1002e
:103150000281d3008180d3008301d1000281d3009a
:103160008180d3008301d1000281d3008180d3000c
:103170000538b000c42add00f300b200838172007c
:1031800007f0a70003f0a00000000600f3ff2700ef
:10319000f2ff2f006110b900fbff370003ff27008b
:1031a000f7ff37001400fa00889fbe008a9fbe0018
:1031b0008c9fbe000004be000205be0068004700f0
:1031c0000a90be000890be00820207000070a700af
:1031d0000bf0a1000bf8a30020003a009e0990001c
:1031e0000e099000fe0090006e0090009e0290007c
:1031f0003443200084825200c6ff32000a003c00a3
:10320000b4fc2f000428e100140034008301d10035
:103210000281d3008180d3000080d3008502e800c2
:10322000faff3a00bbff3700b40020000428e10099
:1032300007003c0000004000818048000201490076
:10324000838149008502e900faff3a00b1ff3700a7
:103250000300280002002000010037006011b800c0
:103260006000b800abff3700889fbe00008270008e
:1032700004027100048271002400320036432000f1
:10328000c50020008383cf000a0039000541b1004a
:103290008283cf00070039000541b1008183cf0050
:1032a000040039000541b1008083cf0001003900de
:1032b0000541b10085c353006022b80012003200fe
:1032c0000a003b0084827200610260008301d10029
:1032d0000281d3008180d3000080d3000603e80080
:1032e0008743e800f7ff3a0007003700000040007e
:1032f0008180480002014900838149000603e900fa
:103300008743e900f9ff3a0042ff07004f04be007f
:10331000000006001400fa00889fbe008a9fbe00cd
:103320008c9fbe00040678000004be000205be00ab
:10333000680047000a90be000890be002502070002
:103340006200e1000800be000a01be000400200087
:103350000b003a001e029000e43fb1006e009000a6
:10336000fe0090000e0990009e099000f300b2004c
:1033700005fe2300858171000bf0a70003f0a0007b
:10338000040e780063ff37002800fa00889fbe0013
:103390008a9fbe008c9fbe0003866b0049ff07001a
:1033a0000028a30064003a000128a30067003a0047
:1033b0000008a30062003a000108a30065003a007b
:1033c0001e009000be08900081064000ed3fb10055
:1033d000f4805700ee019000111ab8008e09900099
:1033e000311bb8009e099000311cb800511db80077
:1033f000f485570046000700fe0190003a000700e0
:103400008b85e8003e0007008e0990004000070011
:10341000ee019000340007008b85e80038000700bb
:103420008e099000400007009e0990001b18b8000c
:10343000890440000a854800fe019000340007001e
:103440008b85e80038000700ee019000300007008f
:103450008e0990001b18b800890440000a854800b6
:103460000a98a30008003a000402420085824a003c
:1034700006034b0087834b0008044c0089844c00f2
:103480000a054d008d06e9008482720085027300f2
:103490004c3add0085027200010032001500200068
:1034a000443ade001400b2004538de00cb45dd00b2
:1034b0000b007000c540de00cb4ddd008b8070003e
:1034c0004549de00cb55dd000b017100c551de0022
:1034d0000d037800cffe070003f0a1000cf0a70059
:1034e00003f0a0000bff37001b18b8008502400056
:1034f00006834800e0834b0060044c00070037005f
:103500001b18b8000603400087834800faff370005
:103510001b18b8008703400008844800e0844c0072
:1035200060054d00000006001b18b80008044000ac
:1035300089844800faff37000108a300f2fe3a0030
:103540005800be005801be00e3ff37000008a3008a
:10355000edfe3a0009047800f9ff370007f0a200f9
:10356000c6fd37006022b800060220000000d0002f
:103570008180d2000482d2008582d2000000a000a7
:103580000202520083825a0003003100020242000c
:1035900083824a000000a1000603e900f3ff3a001d
:1035a00000000600020ab900001bb9000200b800c2
:1035b000810042008100430000000600889fbe0099
:1035c0008a9fbe003004be002005be0004044400f3
:1035d00085844c0006054d0087854d000898be0087
:1035e0000a90be000440e10005c8e10006d0e100f9
:1035f00007d8e10002003100680040001008e80030
:103600004f05be004f04be00000006001000fa0087
:10361000889fbe008a9fbe00110020000605be00e4
:103620000404be003002be002003be00c4b79f00e9
:10363000d5b79f00e6b79f00f7b79f00080252007a
:1036400089825a000a035b008b835b0084bf9f0062
:1036500095bf9f00a6bf9f00b7bf9f000498be0004
:103660000698be004fb29700dfb297006fb3970085
:10367000ffb397000820e10009a8e1000ab0e100cb
:103680000bb8e100010039008000eb004f05be00df
:10369000108810004f04be000080fa0000000600f1
:1036a0001400fa00889fbe008a9fbe008c9fbe0057
:1036b0000006eb003e000700ccb79f00bcb79f00a0
:1036c000acb79f009cb79f008cb79f000605be005b
:1036d0000404be000d0420004fb39700bfb2970052
:1036e000860343002fb29700e00f530004003d0013
:1036f0003d0007000f004000b0ff07000300370047
:10370000390007000f004000c0ff0700cfb297004c
:1037100095bf9f00e08f5200090035002b00070085
:1037200014002000050020006033b8000000720083
:103730008180720002017300838173001c00070006
:103740000c06e8008d0f5600e3ff3a001fba970001
:10375000e00f520005003d000802be000a03be0053
:1037600000fe2f000f00400094ff07004faa9700b3
:10377000e00f520008003a000fb497009fb4970082
:103780002fb59700bfb59700d8b79f00e9b79f0046
:10379000fab79f008bbf9f000c0007004f06be00ca
:1037a0004f05be004f04be000080fa000000060076
:1037b000010007000000060090b79f00a1b79f001e
:1037c000b2b79f00c3b79f000000060001000700ca
:1037d000000006001fb09700afb097003fb1970000
:1037e000cfb19700000006004f2bde00f9ff070065
:1037f00086837300858242004f23de00a7b79f00b7
:10380000868272000402420095b79f00ffaa9700cb
:103810004f2bde00858242000602720084b79f00b3
:103820006faa97004f23de000402420086827200d6
:10383000f5af9f004f18de0000027200e5ff0700a1
:10384000e4af9f0000004000818048000201490071
:10385000838149000802be000a03be00d6ff0700ac
:1038600000fe2f0000000600881f780018002000ce
:10387000881f78008aff07008f87e9004f047800cf
:1038800000000600801feb0085ff07008f87e9001e
:1038900000000600889fbe008a9fbe00e00f500017
:1038a000e08f5800e00f5900e08f59000c003d00f8
:1038b0006044b8006055b8000000540081805c008e
:1038c00002015d0083815d001800200015000700e3
:1038d00008003d00180007000004eb000500370059
:1038e0000004eb000f00070002003d00120007007b
:1038f00018002000dcff0700e00f54000600320033
:103900006022b8006033b8000000520081805a0085
:1039100002015b0083815b004f05be004f04be00c7
:1039200000000600e00f5200e08f5a00e00f5b003d
:10393000e08f5b00000006006044b8006055b800ee
:103940000402540085825c0006035d0087835d00ed
:1039500000000600889fbe008a9fbe008c1f780072
:10396000e00f5000e08f5800e00f5900e08f590041
:103970000d003d006044b8006055b8001c002000f8
:103980000000540081805c0002015d0083815d00c5
:103990000820e10009a8e1000ab0e1000bb8e1004d
:1039a0000d003d00080037000006eb00e00f52005c
:1039b000e08f5a00e00f5b00e08f5b0006003d00e7
:1039c0006044b8006055b8000402540085825c0071
:1039d00006035d0087835d00aaff0700e00f560025
:1039e000060032006022b8006033b80000005200c8
:1039f00081805a0002015b0083815b004f067800e2
:103a00004f05be004f04be0000000600889fbe00a8
:103a10008a9fbe008c1f78000006eb00e00f50006c
:103a2000e08f5800e00f5900e08f590007003d007b
:103a30006044b8006055b8001c002000000054002d
:103a400081805c0002015d0083815d00e00f520017
:103a5000e08f5a00e00f5b00e08f5b0007003d0045
:103a60006044b8006055b8000c00a2000402540085
:103a700085825c0006035d0087835d007c00070093
:103a8000e00f5600060032006022b8006033b80034
:103a90000000520081805a0002015b0083815b00bc
:103aa0004f0678004f05be004f04be000000060020
:103ab000889fbe008a9fbe008c9fbe000404be008b
:103ac0000605be00809fbe00829fbe002f0007003b
:103ad000040678000800be000a01be002b000700a3
:103ae000840678004f03be004f02be008d4f760063
:103af0007fb0970013003300f0ff2f008b8f6b0017
:103b000006003b000d0666000c00a7000a00370007
:103b100007f0a600100020000a003700880f5200ae
:103b2000898f5a008a0f5b008b8f5b00030039007e
:103b30001000200001003e000000200007f0a70058
:103b40000000ea004f06be004f05be004f04be0055
:103b500000000600e48240001078a3000700320055
:103b6000640240001178a3003400be001401be00be
:103b7000040032000330a700000006003500be003c
:103b80001501be000330a0000000060005ff27005d
:103b900005826100070032000428e10001003200c4
:103ba000240005000600070001003a00440005005b
:103bb0000408050002000700f9ff3a0014000500a0
:103bc0006f826100810270008502710085027200bf
:103bd00000000600800078005002be005003be00c6
:103be0004439de00f700b200f37f200003016100da
:103bf000090032000218e10016003a008501720047
:103c000083017300838173000008200015003a00cf
:103c1000400020001300370085017200830173000b
:103c20008381730005003a0004a8be0006a8be0008
:103c3000100020000b0037000201e90004024200de
:103c400085824a0006034b0087834b000748a30088
:103c5000f9ff32000740a00004a8be0006a8be007d
:103c600020002000800098009200980000000600cc
:103c7000889fbe008a9fbe008c9fbe000404b800cf
:103c80000506b8008904460060854e000606b800a7
:103c90000a054600e0854e000706b8008b05460081
:103ca000040eb800890446000a854e00e0854d00e8
:103cb000050eb8000a0546008b854e00060eb800ba
:103cc0008b0546000416b8000a0546008b854e0099
:103cd0000516b8008b054600041eb8008b0546008b
:103ce0000800be000a01be004f06be004f05be0020
:083cf0004f04be0000000600b5
:020000040000fa
:103cf8000000fa001eba0200000000001cc002000a
:103d0800000000000002eb00040078000080fa00c8
:103d1800000006003600f800809fbe00829fbe00ab
:103d2800849fbe00869fbe000400fa002400200085
:103d38001407980064a381006123b9000082eb0096
:103d48008082eb000602420087824a00b60120000a
:103d580007002000860f5200878f5a0072003e002d
:103d6800046001001b0037006f0037006e00370049
:103d7800330037006c0037006b0037006a003700eb
:103d880069003700680037006700370066003700b1
:103d980031003700640037006300370062003700e5
:103da80061003700600037005f0037005e003700b1
:103db8005d0037005c0037005b0037005a003700b1
:103dc80059003700580037003b00370056003700cd
:103dd800440037000060fe00649e8100e10f52003d
:103de8004e003a009abb0200000000000002eb00ff
:103df80044a389000002eb00040f78000c00370090
:103e080035ab81003407200004aab9000402780009
:103e18001e0242000482e8008402420064802000fe
:103e2800048242008002eb00050a78001e0fe800b9
:103e38001e027800e50f5200f1ff34003a00370007
:103e4800649e8100e10f520036003a00c401200050
:103e580064a389003400370035ab8100640e20006c
:103e680004aab900040278008482e8006480200073
:103e78000482420014027800e00f520002003a0067
:103e8800d402200064a3890034ab8100f200200032
:103e98002100200004007800e4bb020000000000bc
:103ea8000002780084027800c49f810004824200e6
:103eb800c49f89001c0037000402200014079800e2
:103ec80035ab81000e82e80043012000050178002f
:103ed800110020000000eb00a6b502000000000061
:103ee8001100370034ab810022002000410120007e
:103ef80004007800e4bb0200000000000002780023
:103f080084027800c49f810004824200c49f890013
:103f18005402200064a38900030037000000000059
:103f2800010037000000000064a381000402e800db
:103f380064a3890065a3810024032000848f5200b4
:103f4800050034000002eb0064a3890034ab810053
:103f58000402e80034ab8900c4a281000402e8002e
:103f6800c4a2890084e0a9000080fa004f03be00c3
:103f78004f02be004f01be004f00be003600f900e0
:043f880000400600ef
:020000040000fa
:103f8c001080ba00000006001000ba000000060005
:103f9c00801f78000500fc0050052000303b880095
:103fac00a00a2000303b880061e7a8000000000058
:103fbc000000000061e7af00feff37004f00780003
:103fcc00000006008088bb000000060080c8bb0013
:103fdc00000006008008bb00000006008048bb0003
:043fec0000000600cb
:020000040000fa
:107000000d0a00003a200000000d00000a200000d8
:1070100020200000202000002a2a0000202000005c
:107020002020000020200000506c0000656100005e
:1070300073650000206900006e7300006572000037
:1070400074200000416400006d6900006e200000a3
:107050007061000073730000776f000072640000bd
:107060002020000020200000202000002a2a00000c
:107070000d0a00000053000075700000706f0000e2
:1070800072740000206300006f6e000074610000e5
:10709000637400003a20000063610000726c00001d
:1070a0006f2e0000636100006d700000616e0000d3
:1070b000616c000065410000547000006f640000c6
:1070c000697500006d6500006e670000696e000064
:1070d00065650000726900006e6700002e630000a5
:1070e0006f6d0000200d00000a0000002a2a000039
:1070f0002a2a00002a2a00002a2a00002a2a000040
:107100002a2a00002a2a00002a2a00002a2a00002f
:107110002a2a00002a2a00002a2a00002a2a00001f
:107120002a2a00002a2a00002a2a00002a2a00000f
:107130002a2a00002a2a00002a2a00002a2a0000ff
:107140002a2a00002a2a00002a2a00002a2a0000ef
:107150002a2a00002a2a00002a2a00000d0a00001c
:10716000002a000020200000202000002020000035
:10717000202000002020000020200000202000000f
:107180002020000020200000504f00004449000053
:10719000554d0000204500004e470000494e0000bc
:1071a00045450000524900004e47000020200000e5
:1071b00020200000202000002020000020200000cf
:1071c00020200000202000002020000020200000bf
:1071d0002a0d00000a0000002a20000020200000e4
:1071e000202000002020000020200000202000009f
:1071f000204200004d530000204300006f6e00004d
:10720000747200006f6c00006c650000722000005a
:1072100044450000565f000031340000303100006a
:10722000207200003135000070300000372000006f
:10723000202000002020000020200000202000004e
:1072400020200000202a00000d0a0000002a000073
:10725000202000002020000020200000202000002e
:10726000202000002020000020200000202000001e
:107270002020000044610000746500003a200000f6
:1072800030380000204a0000756e000020320000f7
:1072900030310000352000002020000020200000b8
:1072a00020200000202000002020000020200000de
:1072b0002020000020200000202000002a0d0000d7
:1072c0000a0000002a2000002020000020200000ea
:1072d0002020000020200000204300006f6d0000ef
:1072e0006d6500006e7400003a20000056450000f5
:1072f00048490000434c0000452000004245000082
:107300005441000020520000454c0000454100005f
:107310005345000020200000202000002020000015
:10732000202000002020000020200000202000005d
:10733000202a00000d0a0000002a00002020000082
:1073400020200000204d0000616900006c3a000020
:1073500020630000617200006c6f00002e6300006b
:10736000616d0000706100006e6100006c650000de
:10737000407000006f640000697500006d650000da
:107380006e670000696e00006565000072690000ac
:107390006e6700002e6300006f6d0000202000006b
:1073a00020200000202000002a0d00000a0000001c
:1073b0002a2a00002a2a00002a2a00002a2a00007d
:1073c0002a2a00002a2a00002a2a00002a2a00006d
:1073d0002a2a00002a2a00002a2a00002a2a00005d
:1073e0002a2a00002a2a00002a2a00002a2a00004d
:1073f0002a2a00002a2a00002a2a00002a2a00003d
:107400002a2a00002a2a00002a2a00002a2a00002c
:107410002a2a00002a2a00002a2a00002a2a00001c
:107420000d0a0000200d00000a00000020200000ce
:10743000202000002020000020200000202000004c
:10744000202000002020000020200000202000003c
:10745000202000002020000020200000202000002c
:1074600020200000202000002020000020410000fb
:1074700063740000697600006974000079200000e0
:10748000546900006d650000723a0000202500007c
:107490006c750000205b0000735d00000d0a0000a9
:1074a00000200000202000002020000020200000fc
:1074b00020200000202000002020000020200000cc
:1074c00020200000202000002020000020200000bc
:1074d0002020000020200000205300004c45000028
:1074e000455000003a20000025750000200d0000e6
:1074f0000a000000202000002020000020200000c2
:10750000202000002020000020200000202000007b
:10751000202000002020000020200000202000006b
:10752000202000002020000020200000434f000009
:107530004e54000041430000544f000052530000dd
:107540003a20000025750000200d00000a00000010
:10755000202000002020000020200000202000002b
:10756000202000002020000020200000202000001b
:10757000202000002020000020200000202000000b
:107580002020000020200000504c00005547000043
:1075900020440000455600003a20000025750000f8
:1075a000200d00000a000000202000002020000024
:1075b00020200000202000002020000020200000cb
:1075c00020200000202000002020000020200000bb
:1075d00020200000202000002020000020200000ab
:1075e000504f000057450000522000004c4f000053
:1075f0004f5000003a20000025750000200d0000cb
:107600000a000000202000002020000020200000b0
:10761000202000002020000020200000202000006a
:10762000202000002020000020200000202000005a
:10763000202000002020000020200000494e0000f3
:1076400054450000524c00004f4300004b20000006
:10765000494e00003a20000025750000200d000072
:107660000a00000020200000202000002020000050
:10767000202000002020000020200000202000000a
:1076800020200000202000002020000020200000fa
:107690002020000020200000202000005345000092
:1076a0004e530000455f0000564200004154000068
:1076b000543a000020250000752000000d0a00004b
:1076c00000200000202000002020000020200000da
:1076d00020200000202000002020000020200000aa
:1076e000202000002020000020200000202000009a
:1076f000202000002020000020530000454e000004
:10770000534500005f560000434800005247000008
:107710003a20000025750000200d00000a0000003e
:107720002020000020200000202000002020000059
:107730002020000020200000202000002020000049
:107740002020000020200000202000002020000039
:107750002020000020200000534500004e53000070
:10776000455f00004b450000593a0000202500000d
:10777000752000000d0a00000020000020200000fd
:1077800020200000202000002020000020200000f9
:1077900020200000202000002020000020200000e9
:1077a00020200000202000002020000020200000d9
:1077b000204900004d4400005f4900004e3a00009f
:1077c00020250000752000000d0a00000048000080
:1077d000617200006420000045720000726f0000ba
:1077e000727300003a20000025750000200d000093
:1077f0000a0000004861000072640000204500009b
:10780000727200006f72000073200000436f00006e
:10781000646500003a20000025750000200d00007e
:107820000a0000004f700000746900006f6e0000d5
:10783000732000004c690000737400003a200000bf
:107840000d0a00000d0a0000002000003129000090
:1078500020430000656c00006c73000020530000a2
:107860007461000074750000732000000d0a0000b0
:10787000002000003229000020420000616c00005e
:10788000616e000063650000205300007461000019
:1078900074750000732000000d0a00000020000035
:1078a000332900002053000074610000746500005b
:1078b000204f000066200000436800006172000055
:1078c0006765000020280000534f00004329000096
:1078d000200d00000a0000002034000029200000d4
:1078e000426100006c6100006e63000065200000d2
:1078f0005365000074740000696e00006773000037
:10790000200d00000a0000002035000029200000a2
:10791000424d0000532000005365000074740000c5
:10792000696e000067730000200d00000a0000006f
:10793000203600002920000043680000617200002a
:1079400067650000722000000d0a0000000d0000b5
:107950000a20000039290000204300006f6e00005b
:1079600074610000637400006f72000073200000f7
:107970000d0a0000000d00000a2000003029000060
:10798000204800006f6d000065200000506100007d
:1079900067650000200d00000a00000020200000a4
:1079a000436500006c6c000073200000566f0000ff
:1079b0006c7400006167000065200000616e0000cb
:1079c00064200000546500006d70000065720000c6
:1079d0006174000075720000653a0000200d00001f
:1079e0000a0d00000a000000546f000074610000de
:1079f0006c200000566f00006c740000616700008e
:107a0000653a000020250000752000005b5600004c
:107a10005d0d00000a0d00000a0000004d6100002d
:107a200078200000566f00006c7400006167000051
:107a3000653a000020250000752000005b6d000005
:107a4000565d00000d0a00000d0a00000041000014
:107a500076670000205600006f6c00007461000023
:107a6000676500003a20000025750000205b0000db
:107a70006d5600005d0d00000a0d00000a000000b8
:107a80004d6900006e200000566f00006c7400000d
:107a900061670000653a00002025000075200000a5
:107aa0005b6d0000565d00000d0a00000d0a00002d
:107ab000004d00006178000020540000656d00005a
:107ac000703a000020250000752000005b43000094
:107ad0005d0d00000a0d00000a0000004176000064
:107ae00067200000546500006d7000003a2000001f
:107af00025750000205b0000435d00000d0a0000ba
:107b00000d0a0000004d0000696e000020540000c6
:107b1000656d0000703a000020250000752000000f
:107b20005b4300005d0d00000a0d00000a0000002c
:107b30004d6100007820000052650000732e0000a7
:107b40003a200000252e000032660000205b000075
:107b50006d4f0000686d00005d0d00000a0d000013
:107b60000a0000004d6900006e2000005265000010
:107b7000732e00003a200000252e0000326600001f
:107b8000205b00006d4f0000686d00005d0d00007f
:107b90000a0d00000a000000204400006576000085
:107ba0006963000065730000205000006c750000e0
:107bb00067670000656400003a200000257500003a
:107bc000202000000d0a00000020000031310000dc
:107bd00029200000436500006c6c00007320000049
:107be0006465000076200000233100003a20000088
:107bf00025750000202000000d0a00000020000074
:107c00003132000029200000436500006c6c000048
:107c1000732000006465000076200000233200001d
:107c20003a20000025750000202000000d0a000009
:107c300000200000313300002920000043650000cf
:107c40006c6c00007320000064650000762000006a
:107c5000233300003a20000025750000202000009a
:107c60000d0a00000020000031340000292000002f
:107c7000436500006c6c0000732000006465000028
:107c800076200000233400003a2000002575000013
:107c9000202000000d0a0000002000003135000007
:107ca00029200000436500006c6c00007320000078
:107cb0006465000076200000233500003a200000b3
:107cc00025750000202000000d0a000000200000a3
:107cd0003136000029200000436500006c6c000074
:107ce0007320000064650000762000002336000049
:107cf0003a20000025750000202000000d0a000039
:107d000000200000313700002920000043650000fa
:107d10006c6c000073200000646500007620000099
:107d2000233700003a2000002575000020200000c5
:107d30000d0a00000020000031380000292000005a
:107d4000436500006c6c0000732000006465000057
:107d500076200000233800003a200000257500003e
:107d6000202000000d0a0000002000003139000032
:107d700029200000436500006c6c000073200000a7
:107d80006465000076200000233900003a200000de
:107d900025750000202000000d0a000000200000d2
:107da000313100003029000020430000656c0000e4
:107db0006c73000020640000657600002023000042
:107dc000313000003a20000025750000202000001e
:107dd0000d0a0000200d00000a2000000d0a00001e
:107de000206100006e640000207300006f2000001e
:107df0006f6e00002e2e00002e00000020200000dc
:107e0000436500006c6c000073200000566f00009a
:107e10006c74000061670000652000004261000092
:107e20006e6b000020230000256400003a20000053
:107e30000d0a00000d0a000000230000313a000086
:107e400020250000752000005b6d0000565d0000dd
:107e5000207c00007c200000523a00002025000019
:107e60002e320000662000005b6d00004f680000ad
:107e70006d5d0000207c00007c4200006c3a000038
:107e8000256400007c7c00004f5600003a2500006d
:107e9000647c00007c550000563a00002564000018
:107ea0007c7c0000200d00000a000000233200004e
:107eb0003a20000025750000205b00006d56000090
:107ec0005d2000007c7c0000205200003a20000071
:107ed000252e000032660000205b00006d4f000080
:107ee000686d00005d2000007c7c0000426c00009a
:107ef0003a250000647c00007c4f0000563a0000e8
:107f0000256400007c7c0000555600003a250000e6
:107f1000647c00007c2000000d0a000000230000ab
:107f2000333a000020250000752000005b6d000042
:107f3000565d0000207c00007c200000523a0000ca
:107f4000202500002e320000662000005b6d00003e
:107f50004f6800006d5d0000207c00007c42000046
:107f60006c3a0000256400007c7c00004f56000045
:107f70003a250000647c00007c550000563a000061
:107f8000256400007c7c0000200d00000a00000039
:107f9000233400003a20000025750000205b00001b
:107fa0006d5600005d2000007c7c00002052000027
:107fb0003a200000252e000032660000205b000001
:107fc0006d4f0000686d00005d2000007c7c0000ab
:107fd000426c00003a250000647c00007c4f0000e9
:107fe000563a0000256400007c7c000055560000d5
:107ff0003a250000647c00007c2000000d0a00008f
:1080000000230000353a0000202500007520000004
:108010005b6d0000565d0000207c00007c200000ad
:10802000523a0000202500002e3200006620000099
:108030005b6d00004f6800006d5d0000207c00005b
:108040007c4200006c3a0000256400007c7c00004b
:108050004f5600003a250000647c00007c5500006b
:10806000563a0000256400007c7c0000200d0000d2
:108070000a000000233600003a20000025750000a9
:10808000205b00006d5600005d2000007c7c00003d
:10809000205200003a200000252e00003266000029
:1080a000205b00006d4f0000686d00005d20000047
:1080b0007c7c0000426c00003a250000647c0000db
:1080c0007c4f0000563a0000256400007c7c0000d4
:1080d000555600003a250000647c00007c2000001a
:1080e0000d0a00000d0a000000540000656d00003c
:1080f00070200000313a00002025000075200000ab
:108100000d0a000000540000656d000070200000a2
:10811000323a000020250000752000000d0a000002
:1081200000540000656d000070200000333a00002c
:1081300020250000752000000d0a000000520000fc
:108140006d610000783a0000202500002e3200000a
:10815000662000000d0a0000005200006d6900005a
:108160006e3a0000202500002e320000662000003c
:108170000d0a00000020000020420000616c000099
:10818000616e000063650000205300007461000010
:1081900074750000733a0000200d00000a0d000005
:1081a0000a00000053500000492000004661000012
:1081b000756c0000743a0000202500007520000056
:1081c0000d0a00000043000052430000205300004d
:1081d0007461000074750000733a000020250000ef
:1081e000752000000d0a00000d0a00000057000075
:1081f0006174000065720000204c000065610000a1
:108200006b200000536e0000733a00002025000030
:10821000662000005b5600005d0d00000a0d0000a6
:108220000a000000537400006174000075730000c0
:1082300020420000616e00006b200000233100002e
:108240003a2000003078000025780000200d000062
:108250000a000000416c0000617200006d20000007
:10826000426100006e6b000020230000313a0000e4
:108270002030000078250000782000000d0a000062
:1082800000460000617500006c7400002042000090
:10829000616e00006b200000233100003a200000d6
:1082a0003078000025780000200d00000a0d000045
:1082b0000a000000494f00002052000065610000e4
:1082c00064200000426100006e6b0000202300006b
:1082d000313a0000203000007825000078200000ae
:1082e0000d0a0000005300006c650000657000007e
:1082f000206300006f6e0000743a0000202500002b
:10830000752000000d0a00000d0a00000049000061
:108310004f20000052650000616400002042000010
:10832000616e00006b20000023310000363a00002f
:108330002030000078250000782000000d0a0000a1
:108340000d0a000000530000746100007475000005
:1083500073200000426100006e6b000020230000cb
:10836000323a00002030000078250000782000001c
:108370000d0a0000004100006c610000726d0000f9
:1083800020420000616e00006b20000023320000dc
:108390003a2000003078000025780000200d000011
:1083a0000a00000046610000756c000074200000a7
:1083b000426100006e6b000020230000323a000092
:1083c0002030000078250000782000000d0a000011
:1083d0000d0a000000530000746100007475000075
:1083e00073200000426100006e6b0000202300003b
:1083f000313600003a200000307800002578000077
:10840000200d00000a000000416c000061720000b5
:108410006d200000426100006e6b00002023000010
:10842000313600003a200000307800002578000046
:10843000200d00000a00000046610000756c00007d
:1084400074200000426100006e6b000020230000d9
:10845000313600003a200000307800002578000016
:10846000200d00000a0d00000a00000053740000f7
:10847000617400007573000020420000616e00000e
:108480006b20000023320000353a0000203000004d
:1084900078250000782000000d0a0000004100004f
:1084a0006c610000726d000020420000616e0000ef
:1084b0006b20000023320000353a0000203000001d
:1084c00078250000782000000d0a0000004600001a
:1084d000617500006c74000020420000616e0000b5
:1084e0006b20000023320000353a000020300000ed
:1084f00078250000782000000d0a00000d0a000019
:1085000000530000746100007475000073200000c7
:10851000426100006e6b0000202300003332000037
:108520003a2000003078000025780000200d00007f
:108530000a000000416c0000617200006d20000024
:10854000426100006e6b0000202300003332000007
:108550003a2000003078000025780000200d00004f
:108560000a00000046610000756c000074200000e5
:10857000426100006e6b00002023000033320000d7
:108580003a2000003078000025780000200d00001f
:108590000a0d00000a0000002020000053740000b3
:1085a00061740000652000004f6600002043000059
:1085b0006861000072670000652000002853000019
:1085c0004f430000293a0000200d00000a0d000072
:1085d0000a000000546f0000746100006c2000006d
:1085e000436100007061000063690000747900005d
:1085f0003a20000025660000205b00004168000072
:108600005d2000000d0a00000d0a00000049000076
:108610006e730000746100006e740000204300005f
:1086200075720000726500006e7400003a20000050
:1086300025660000205b0000415d0000200d000069
:108640000a00000041630000637500006d750000c2
:108650006c6100007465000064200000456e00003d
:1086600065720000677900003a200000256600006e
:10867000205b0000416800005d2000000d0a000042
:10868000005300004f4300003a2000002566000020
:1086900020250000252000000d0a000000530000e6
:1086a0004f4400003a20000025750000205b0000c8
:1086b000416800005d2000000d0a00000d0a000066
:1086c000002000004375000072720000656e00001b
:1086d0007420000052650000712e00003a20000056
:1086e00025750000205b000031300000306d000077
:1086f000415d00000d0a00000020000043750000ed
:1087000072720000656e0000742000005265000067
:10871000712e00003a20000025660000205b00005a
:1087200031300000306d0000415d00000d0a000096
:10873000004d000061780000205600006f6c0000c2
:1087400074610000676500003a2000002575000094
:10875000205b00006d5600005d0d00000a00000067
:108760004d61000078200000546500006d7000002d
:108770003a20000025750000205b0000435d0000ea
:108780000d0a0000004900004d4400002052000086
:108790006573000069730000746100006e6300007f
:1087a000653a000020250000752000005b6b00008a
:1087b0004f6800006d5d00000d0a000000570000ca
:1087c0006174000065720000204c000065610000cb
:1087d0006b200000536500006e7300006f72000094
:1087e0003a20000025660000205b0000565d000076
:1087f0000d0a00000020000020420000616c000013
:10880000616e000063650000205300006574000085
:10881000746900006e670000733a0000200d0000cc
:108820000a0d00000a000000203400003129000079
:10883000204500006e610000626c0000653a000097
:1088400020250000752000000d0a00000020000017
:108850003432000029200000536c000065650000e0
:10886000703a000020250000752000000d0a00006d
:108870000020000034330000292000004261000085
:108880006c6100006e63000065200000666c0000f3
:108890006f6f0000723a0000202500007520000074
:1088a0005b6d0000565d0000200d00000a00000016
:1088b000203400003429000020440000454c000012
:1088c000544100003a20000025750000205b0000a4
:1088d0006d5600005d2000000d0a00000020000021
:1088e00034350000292000004d41000058200000d0
:1088f000426100006c6100006e63000065200000b2
:10890000546500006d700000657200006174000025
:1089100075720000653a00002025000075200000f7
:108920005b4300005d2000000d0a00000d0a0000fe
:10893000002000003436000029200000466f0000af
:108940007263000065200000426100006c6100005d
:108950006e63000065200000456e0000616200004b
:108960006c6500003a20000025750000200d000015
:108970000a000000203400003729000020460000d3
:108980006f72000063650000204c00004544000049
:1089900073200000456e0000616200006c650000fd
:1089a0003a20000025750000200d00000a0000009c
:1089b00020200000426100006c6100006e63000036
:1089c00065200000456e0000616200006c650000db
:1089d00020280000302000004f460000462c0000f8
:1089e00020310000204f00004e2900003a200000f6
:1089f0000d0a00000d0a00000020000020530000b6
:108a00006c65000065700000202800003020000028
:108a10004f460000462c000020310000204f00008f
:108a20004e2900003a2000000d0a00000d0a000047
:108a30000020000020420000616c0000616e000018
:108a400063650000206600006c6f00006f7200001c
:108a5000205b00006d5600005d3a0000200d000014
:108a60000a0d00000a00000020200000444500001c
:108a70004c540000412000005b6d0000565d00007a
:108a80003a2000000d0a00000d0a0000002000003e
:108a9000204d00004158000020420000616c0000a1
:108aa000616e00006365000020540000656d0000e9
:108ab000706500007261000074750000726500004e
